:100000000C9434000C946C000C946C000C946C00F8
:100010000C946C000C946C000C946C000C946C00B0
:100020000C946C000C946C000C946C000C946C00A0
:100030000C946C000C946C000C946C000C946C0090
:100040000C946C000C946C000C946C000C946C0080
:100050000C946C000C946C000C946C000C946C0070
:100060000C946C000C946C0011241FBECFEFD8E0F0
:10007000DEBFCDBF0E9440000C946100F894FFCF1A
:1000800080E384B915B890E3189B18C02C9A2D987A
:100090002FEF39E688E1215030408040E1F700C081
:1000A000000085B1892785B92FEF39E688E1215015
:1000B00030408040E1F700C00000E6CF2C982D983A
:0200C000E3CF8C
:1000C200EC010E9471000E947000CE010E94720039
:0600D200CE010E946E0049
:0400D8000C94000084
:0400DC000E943E0040
:0200E000089581
:0200E20008957F
:0200E40008957D
:00000001FF
